{
  "contractName": "PredictionMarket",
  "abi": [
    {
      "anonymous": false,
      "inputs": [
        {
          "indexed": false,
          "internalType": "uint256",
          "name": "marketId",
          "type": "uint256"
        },
        {
          "indexed": true,
          "internalType": "address",
          "name": "user",
          "type": "address"
        },
        {
          "indexed": false,
          "internalType": "uint256",
          "name": "optionId",
          "type": "uint256"
        },
        {
          "indexed": false,
          "internalType": "uint256",
          "name": "amount",
          "type": "uint256"
        }
      ],
      "name": "BetPlaced",
      "type": "event"
    },
    {
      "anonymous": false,
      "inputs": [
        {
          "indexed": false,
          "internalType": "uint256",
          "name": "marketId",
          "type": "uint256"
        },
        {
          "indexed": false,
          "internalType": "string",
          "name": "description",
          "type": "string"
        },
        {
          "indexed": false,
          "internalType": "uint256",
          "name": "numOptions",
          "type": "uint256"
        }
      ],
      "name": "MarketCreated",
      "type": "event"
    },
    {
      "anonymous": false,
      "inputs": [
        {
          "indexed": false,
          "internalType": "uint256",
          "name": "marketId",
          "type": "uint256"
        },
        {
          "indexed": false,
          "internalType": "uint256",
          "name": "winningOption",
          "type": "uint256"
        }
      ],
      "name": "MarketResolved",
      "type": "event"
    },
    {
      "anonymous": false,
      "inputs": [
        {
          "indexed": false,
          "internalType": "uint256",
          "name": "marketId",
          "type": "uint256"
        },
        {
          "indexed": false,
          "internalType": "uint256",
          "name": "optionId",
          "type": "uint256"
        },
        {
          "indexed": false,
          "internalType": "string",
          "name": "option",
          "type": "string"
        }
      ],
      "name": "OptionAdded",
      "type": "event"
    },
    {
      "inputs": [
        {
          "internalType": "uint256",
          "name": "",
          "type": "uint256"
        }
      ],
      "name": "markets",
      "outputs": [
        {
          "internalType": "string",
          "name": "description",
          "type": "string"
        },
        {
          "internalType": "uint256",
          "name": "numOptions",
          "type": "uint256"
        },
        {
          "internalType": "uint256",
          "name": "totalBetOnMarket",
          "type": "uint256"
        },
        {
          "internalType": "bool",
          "name": "resolved",
          "type": "bool"
        },
        {
          "internalType": "uint256",
          "name": "winningOption",
          "type": "uint256"
        }
      ],
      "stateMutability": "view",
      "type": "function"
    },
    {
      "inputs": [
        {
          "internalType": "string",
          "name": "_description",
          "type": "string"
        },
        {
          "internalType": "uint256",
          "name": "_numOptions",
          "type": "uint256"
        },
        {
          "internalType": "string[]",
          "name": "_options",
          "type": "string[]"
        }
      ],
      "name": "createMarket",
      "outputs": [],
      "stateMutability": "nonpayable",
      "type": "function"
    },
    {
      "inputs": [
        {
          "internalType": "uint256",
          "name": "_marketId",
          "type": "uint256"
        },
        {
          "internalType": "uint256",
          "name": "_optionId",
          "type": "uint256"
        }
      ],
      "name": "placeBet",
      "outputs": [],
      "stateMutability": "payable",
      "type": "function"
    },
    {
      "inputs": [
        {
          "internalType": "uint256",
          "name": "_marketId",
          "type": "uint256"
        },
        {
          "internalType": "uint256",
          "name": "_winningOption",
          "type": "uint256"
        }
      ],
      "name": "resolveMarket",
      "outputs": [],
      "stateMutability": "nonpayable",
      "type": "function"
    },
    {
      "inputs": [
        {
          "internalType": "uint256",
          "name": "_marketId",
          "type": "uint256"
        }
      ],
      "name": "claimPayout",
      "outputs": [],
      "stateMutability": "nonpayable",
      "type": "function"
    },
    {
      "inputs": [
        {
          "internalType": "uint256",
          "name": "_marketId",
          "type": "uint256"
        }
      ],
      "name": "getMarket",
      "outputs": [
        {
          "internalType": "string",
          "name": "",
          "type": "string"
        },
        {
          "internalType": "uint256",
          "name": "",
          "type": "uint256"
        },
        {
          "internalType": "bool",
          "name": "",
          "type": "bool"
        },
        {
          "internalType": "uint256",
          "name": "",
          "type": "uint256"
        }
      ],
      "stateMutability": "view",
      "type": "function"
    },
    {
      "inputs": [
        {
          "internalType": "uint256",
          "name": "_marketId",
          "type": "uint256"
        },
        {
          "internalType": "uint256",
          "name": "_optionId",
          "type": "uint256"
        }
      ],
      "name": "getOption",
      "outputs": [
        {
          "internalType": "string",
          "name": "",
          "type": "string"
        }
      ],
      "stateMutability": "view",
      "type": "function"
    }
  ],
  "bytecode": "0x608060405234801561000f575f80fd5b50611a378061001d5f395ff3fe60806040526004361061006f575f3560e01c80638a69614e1161004d5780638a69614e146100f3578063b1283e771461011b578063c3fc07751461015b578063eb44fdd3146101835761006f565b80631ce30927146100735780634afe62b5146100af57806360557333146100cb575b5f80fd5b34801561007e575f80fd5b5061009960048036038101906100949190610d27565b6101c2565b6040516100a69190610def565b60405180910390f35b6100c960048036038101906100c49190610d27565b610315565b005b3480156100d6575f80fd5b506100f160048036038101906100ec9190610d27565b6105a9565b005b3480156100fe575f80fd5b5061011960048036038101906101149190610e0f565b61070b565b005b348015610126575f80fd5b50610141600480360381019061013c9190610e0f565b610933565b604051610152959493929190610e63565b60405180910390f35b348015610166575f80fd5b50610181600480360381019061017c91906110c9565b610a05565b005b34801561018e575f80fd5b506101a960048036038101906101a49190610e0f565b610bbe565b6040516101b99493929190611151565b60405180910390f35b60605f80549050831061020a576040517f08c379a0000000000000000000000000000000000000000000000000000000008152600401610201906111e5565b60405180910390fd5b5f80848154811061021e5761021d611203565b5b905f5260205f2090600a0201905080600101548310610272576040517f08c379a00000000000000000000000000000000000000000000000000000000081526004016102699061127a565b60405180910390fd5b806005015f8481526020019081526020015f208054610290906112c5565b80601f01602080910402602001604051908101604052809291908181526020018280546102bc906112c5565b80156103075780601f106102de57610100808354040283529160200191610307565b820191905f5260205f20905b8154815290600101906020018083116102ea57829003601f168201915b505050505091505092915050565b5f80549050821061035b576040517f08c379a0000000000000000000000000000000000000000000000000000000008152600401610352906111e5565b60405180910390fd5b5f80838154811061036f5761036e611203565b5b905f5260205f2090600a02019050806003015f9054906101000a900460ff16156103ce576040517f08c379a00000000000000000000000000000000000000000000000000000000081526004016103c59061133f565b60405180910390fd5b80600101548210610414576040517f08c379a000000000000000000000000000000000000000000000000000000000815260040161040b9061127a565b60405180910390fd5b5f3411610456576040517f08c379a000000000000000000000000000000000000000000000000000000000815260040161044d906113cd565b60405180910390fd5b34816002015f8282546104699190611418565b9250508190555034816007015f3373ffffffffffffffffffffffffffffffffffffffff1673ffffffffffffffffffffffffffffffffffffffff1681526020019081526020015f205f8282546104be9190611418565b9250508190555034816009015f8481526020019081526020015f205f3373ffffffffffffffffffffffffffffffffffffffff1673ffffffffffffffffffffffffffffffffffffffff1681526020019081526020015f205f8282546105229190611418565b9250508190555034816008015f8481526020019081526020015f205f82825461054b9190611418565b925050819055503373ffffffffffffffffffffffffffffffffffffffff167f1b8a9031cb9351278d70a994f81536e9e08c91162e64f92b2fe4766fb7a891b484843460405161059c9392919061144b565b60405180910390a2505050565b5f8054905082106105ef576040517f08c379a00000000000000000000000000000000000000000000000000000000081526004016105e6906111e5565b60405180910390fd5b5f80838154811061060357610602611203565b5b905f5260205f2090600a02019050806003015f9054906101000a900460ff1615610662576040517f08c379a00000000000000000000000000000000000000000000000000000000081526004016106599061133f565b60405180910390fd5b806001015482106106a8576040517f08c379a000000000000000000000000000000000000000000000000000000000815260040161069f9061127a565b60405180910390fd5b6001816003015f6101000a81548160ff0219169083151502179055508181600401819055507f6dfc24f0f2fb42e49fb4fa3ffa8abb148cab908a1fb8335b3f128a08b2594af183836040516106fe929190611480565b60405180910390a1505050565b5f805490508110610751576040517f08c379a0000000000000000000000000000000000000000000000000000000008152600401610748906111e5565b60405180910390fd5b5f80828154811061076557610764611203565b5b905f5260205f2090600a02019050806003015f9054906101000a900460ff166107c3576040517f08c379a00000000000000000000000000000000000000000000000000000000081526004016107ba906114f1565b60405180910390fd5b5f816004015490505f826009015f8381526020019081526020015f205f3373ffffffffffffffffffffffffffffffffffffffff1673ffffffffffffffffffffffffffffffffffffffff1681526020019081526020015f205490505f811161085f576040517f08c379a000000000000000000000000000000000000000000000000000000000815260040161085690611559565b60405180910390fd5b5f836008015f8481526020019081526020015f205490505f818560020154846108889190611577565b61089291906115e5565b90505f856009015f8681526020019081526020015f205f3373ffffffffffffffffffffffffffffffffffffffff1673ffffffffffffffffffffffffffffffffffffffff1681526020019081526020015f20819055503373ffffffffffffffffffffffffffffffffffffffff166108fc8290811502906040515f60405180830381858888f1935050505015801561092a573d5f803e3d5ffd5b50505050505050565b5f8181548110610941575f80fd5b905f5260205f2090600a02015f91509050805f018054610960906112c5565b80601f016020809104026020016040519081016040528092919081815260200182805461098c906112c5565b80156109d75780601f106109ae576101008083540402835291602001916109d7565b820191905f5260205f20905b8154815290600101906020018083116109ba57829003601f168201915b505050505090806001015490806002015490806003015f9054906101000a900460ff16908060040154905085565b81815114610a48576040517f08c379a0000000000000000000000000000000000000000000000000000000008152600401610a3f90611685565b60405180910390fd5b5f60018160018154018082558091505003905f5260205f209050505f60015f80549050610a7591906116a3565b90505f808281548110610a8b57610a8a611203565b5b905f5260205f2090600a0201905084815f019081610aa99190611873565b508381600101819055505f816003015f6101000a81548160ff0219169083151502179055505f5b84811015610b7b57838181518110610aeb57610aea611203565b5b6020026020010151826005015f8381526020019081526020015f209081610b129190611873565b507f0946129913e1d347e0148279910cacb866da59759e7914832ee7e7b69ac150018382868481518110610b4957610b48611203565b5b6020026020010151604051610b6093929190611942565b60405180910390a18080610b739061197e565b915050610ad0565b507f2d1e9ad45dbe8e898e0374deebf2a661b2ae7c1855d2a29507d584c35d287c75828686604051610baf939291906119c5565b60405180910390a15050505050565b60605f805f80805490508510610c09576040517f08c379a0000000000000000000000000000000000000000000000000000000008152600401610c00906111e5565b60405180910390fd5b5f808681548110610c1d57610c1c611203565b5b905f5260205f2090600a02019050805f018160010154826003015f9054906101000a900460ff168360040154838054610c55906112c5565b80601f0160208091040260200160405190810160405280929190818152602001828054610c81906112c5565b8015610ccc5780601f10610ca357610100808354040283529160200191610ccc565b820191905f5260205f20905b815481529060010190602001808311610caf57829003601f168201915b505050505093509450945094509450509193509193565b5f604051905090565b5f80fd5b5f80fd5b5f819050919050565b610d0681610cf4565b8114610d10575f80fd5b50565b5f81359050610d2181610cfd565b92915050565b5f8060408385031215610d3d57610d3c610cec565b5b5f610d4a85828601610d13565b9250506020610d5b85828601610d13565b9150509250929050565b5f81519050919050565b5f82825260208201905092915050565b5f5b83811015610d9c578082015181840152602081019050610d81565b5f8484015250505050565b5f601f19601f8301169050919050565b5f610dc182610d65565b610dcb8185610d6f565b9350610ddb818560208601610d7f565b610de481610da7565b840191505092915050565b5f6020820190508181035f830152610e078184610db7565b905092915050565b5f60208284031215610e2457610e23610cec565b5b5f610e3184828501610d13565b91505092915050565b610e4381610cf4565b82525050565b5f8115159050919050565b610e5d81610e49565b82525050565b5f60a0820190508181035f830152610e7b8188610db7565b9050610e8a6020830187610e3a565b610e976040830186610e3a565b610ea46060830185610e54565b610eb16080830184610e3a565b9695505050505050565b5f80fd5b5f80fd5b7f4e487b71000000000000000000000000000000000000000000000000000000005f52604160045260245ffd5b610ef982610da7565b810181811067ffffffffffffffff82111715610f1857610f17610ec3565b5b80604052505050565b5f610f2a610ce3565b9050610f368282610ef0565b919050565b5f67ffffffffffffffff821115610f5557610f54610ec3565b5b610f5e82610da7565b9050602081019050919050565b828183375f83830152505050565b5f610f8b610f8684610f3b565b610f21565b905082815260208101848484011115610fa757610fa6610ebf565b5b610fb2848285610f6b565b509392505050565b5f82601f830112610fce57610fcd610ebb565b5b8135610fde848260208601610f79565b91505092915050565b5f67ffffffffffffffff82111561100157611000610ec3565b5b602082029050602081019050919050565b5f80fd5b5f61102861102384610fe7565b610f21565b9050808382526020820190506020840283018581111561104b5761104a611012565b5b835b8181101561109257803567ffffffffffffffff8111156110705761106f610ebb565b5b80860161107d8982610fba565b8552602085019450505060208101905061104d565b5050509392505050565b5f82601f8301126110b0576110af610ebb565b5b81356110c0848260208601611016565b91505092915050565b5f805f606084860312156110e0576110df610cec565b5b5f84013567ffffffffffffffff8111156110fd576110fc610cf0565b5b61110986828701610fba565b935050602061111a86828701610d13565b925050604084013567ffffffffffffffff81111561113b5761113a610cf0565b5b6111478682870161109c565b9150509250925092565b5f6080820190508181035f8301526111698187610db7565b90506111786020830186610e3a565b6111856040830185610e54565b6111926060830184610e3a565b95945050505050565b7f496e76616c6964206d61726b65742049440000000000000000000000000000005f82015250565b5f6111cf601183610d6f565b91506111da8261119b565b602082019050919050565b5f6020820190508181035f8301526111fc816111c3565b9050919050565b7f4e487b71000000000000000000000000000000000000000000000000000000005f52603260045260245ffd5b7f496e76616c6964206f7074696f6e20696e6465780000000000000000000000005f82015250565b5f611264601483610d6f565b915061126f82611230565b602082019050919050565b5f6020820190508181035f83015261129181611258565b9050919050565b7f4e487b71000000000000000000000000000000000000000000000000000000005f52602260045260245ffd5b5f60028204905060018216806112dc57607f821691505b6020821081036112ef576112ee611298565b5b50919050565b7f4d61726b657420616c7265616479207265736f6c7665640000000000000000005f82015250565b5f611329601783610d6f565b9150611334826112f5565b602082019050919050565b5f6020820190508181035f8301526113568161131d565b9050919050565b7f42657420616d6f756e74206d7573742062652067726561746572207468616e205f8201527f3000000000000000000000000000000000000000000000000000000000000000602082015250565b5f6113b7602183610d6f565b91506113c28261135d565b604082019050919050565b5f6020820190508181035f8301526113e4816113ab565b9050919050565b7f4e487b71000000000000000000000000000000000000000000000000000000005f52601160045260245ffd5b5f61142282610cf4565b915061142d83610cf4565b9250828201905080821115611445576114446113eb565b5b92915050565b5f60608201905061145e5f830186610e3a565b61146b6020830185610e3a565b6114786040830184610e3a565b949350505050565b5f6040820190506114935f830185610e3a565b6114a06020830184610e3a565b9392505050565b7f4d61726b6574206e6f74207265736f6c766564207965740000000000000000005f82015250565b5f6114db601783610d6f565b91506114e6826114a7565b602082019050919050565b5f6020820190508181035f830152611508816114cf565b9050919050565b7f4e6f2077696e6e696e672062657420746f20636c61696d0000000000000000005f82015250565b5f611543601783610d6f565b915061154e8261150f565b602082019050919050565b5f6020820190508181035f83015261157081611537565b9050919050565b5f61158182610cf4565b915061158c83610cf4565b925082820261159a81610cf4565b915082820484148315176115b1576115b06113eb565b5b5092915050565b7f4e487b71000000000000000000000000000000000000000000000000000000005f52601260045260245ffd5b5f6115ef82610cf4565b91506115fa83610cf4565b92508261160a576116096115b8565b5b828204905092915050565b7f4e756d626572206f66206f7074696f6e73206d757374206d61746368206e756d5f8201527f4f7074696f6e7300000000000000000000000000000000000000000000000000602082015250565b5f61166f602783610d6f565b915061167a82611615565b604082019050919050565b5f6020820190508181035f83015261169c81611663565b9050919050565b5f6116ad82610cf4565b91506116b883610cf4565b92508282039050818111156116d0576116cf6113eb565b5b92915050565b5f819050815f5260205f209050919050565b5f6020601f8301049050919050565b5f82821b905092915050565b5f600883026117327fffffffffffffffffffffffffffffffffffffffffffffffffffffffffffffffff826116f7565b61173c86836116f7565b95508019841693508086168417925050509392505050565b5f819050919050565b5f61177761177261176d84610cf4565b611754565b610cf4565b9050919050565b5f819050919050565b6117908361175d565b6117a461179c8261177e565b848454611703565b825550505050565b5f90565b6117b86117ac565b6117c3818484611787565b505050565b5b818110156117e6576117db5f826117b0565b6001810190506117c9565b5050565b601f82111561182b576117fc816116d6565b611805846116e8565b81016020851015611814578190505b611828611820856116e8565b8301826117c8565b50505b505050565b5f82821c905092915050565b5f61184b5f1984600802611830565b1980831691505092915050565b5f611863838361183c565b9150826002028217905092915050565b61187c82610d65565b67ffffffffffffffff81111561189557611894610ec3565b5b61189f82546112c5565b6118aa8282856117ea565b5f60209050601f8311600181146118db575f84156118c9578287015190505b6118d38582611858565b86555061193a565b601f1984166118e9866116d6565b5f5b82811015611910578489015182556001820191506020850194506020810190506118eb565b8683101561192d5784890151611929601f89168261183c565b8355505b6001600288020188555050505b505050505050565b5f6060820190506119555f830186610e3a565b6119626020830185610e3a565b81810360408301526119748184610db7565b9050949350505050565b5f61198882610cf4565b91507fffffffffffffffffffffffffffffffffffffffffffffffffffffffffffffffff82036119ba576119b96113eb565b5b600182019050919050565b5f6060820190506119d85f830186610e3a565b81810360208301526119ea8185610db7565b90506119f96040830184610e3a565b94935050505056fea2646970667358221220276f82e08f72cd392685eaef9398674606f09291a48bfa490bf0e6ea7f6f455964736f6c63430008150033",
  "immutableReferences": {},
  "source": "pragma solidity ^0.8.0;\r\n\r\ncontract PredictionMarket {\r\n    struct Market {\r\n        string description;\r\n        uint numOptions;\r\n        uint totalBetOnMarket;\r\n        bool resolved;\r\n        uint winningOption;\r\n        mapping(uint => string) options;\r\n        mapping(address => uint) betOnMarket;\r\n        mapping(address => uint) amountBet;\r\n        mapping(uint => uint) totalBetOnOption; // Total amount bet on each option\r\n        mapping(uint => mapping(address => uint)) bets; // Amount each address bet on each option\r\n    }\r\n    \r\n    Market[] public markets;\r\n\r\n    event MarketCreated(uint marketId, string description, uint numOptions);\r\n    event OptionAdded(uint marketId, uint optionId, string option);\r\n    event MarketResolved(uint marketId, uint winningOption);\r\n    event BetPlaced(uint marketId, address indexed user, uint optionId, uint amount);\r\n\r\n    function createMarket(string memory _description, uint _numOptions, string[] memory _options) public {\r\n        require(_options.length == _numOptions, \"Number of options must match numOptions\");\r\n\r\n        markets.push();\r\n        uint marketId = markets.length - 1;\r\n        Market storage newMarket = markets[marketId];\r\n        newMarket.description = _description;\r\n        newMarket.numOptions = _numOptions;\r\n        newMarket.resolved = false;\r\n\r\n        for (uint i = 0; i < _numOptions; i++) {\r\n            newMarket.options[i] = _options[i];\r\n            emit OptionAdded(marketId, i, _options[i]);\r\n        }\r\n\r\n        emit MarketCreated(marketId, _description, _numOptions);\r\n    }\r\n\r\n    function placeBet(uint _marketId, uint _optionId) public payable {\r\n        require(_marketId < markets.length, \"Invalid market ID\");\r\n        Market storage market = markets[_marketId];\r\n        require(!market.resolved, \"Market already resolved\");\r\n        require(_optionId < market.numOptions, \"Invalid option index\");\r\n        require(msg.value > 0, \"Bet amount must be greater than 0\");\r\n\r\n        market.totalBetOnMarket += msg.value;\r\n        market.amountBet[msg.sender] += msg.value;\r\n        market.bets[_optionId][msg.sender] += msg.value;\r\n        market.totalBetOnOption[_optionId] += msg.value;\r\n\r\n        emit BetPlaced(_marketId, msg.sender, _optionId, msg.value);\r\n    }\r\n\r\n    function resolveMarket(uint _marketId, uint _winningOption) public {\r\n        require(_marketId < markets.length, \"Invalid market ID\");\r\n        Market storage market = markets[_marketId];\r\n        require(!market.resolved, \"Market already resolved\");\r\n        require(_winningOption < market.numOptions, \"Invalid option index\");\r\n\r\n        market.resolved = true;\r\n        market.winningOption = _winningOption;\r\n\r\n        emit MarketResolved(_marketId, _winningOption);\r\n    }\r\n\r\n    function claimPayout(uint _marketId) public {\r\n        require(_marketId < markets.length, \"Invalid market ID\");\r\n        Market storage market = markets[_marketId];\r\n        require(market.resolved, \"Market not resolved yet\");\r\n        uint winningOption = market.winningOption;\r\n        uint userBet = market.bets[winningOption][msg.sender];\r\n        require(userBet > 0, \"No winning bet to claim\");\r\n\r\n        uint totalWinningBets = market.totalBetOnOption[winningOption];\r\n        uint payout = (userBet * market.totalBetOnMarket) / totalWinningBets;\r\n\r\n        // Reset the user's bet to prevent double claiming\r\n        market.bets[winningOption][msg.sender] = 0;\r\n\r\n        // Transfer the payout\r\n        payable(msg.sender).transfer(payout);\r\n    }\r\n\r\n    function getMarket(uint _marketId) public view returns (string memory, uint, bool, uint) {\r\n        require(_marketId < markets.length, \"Invalid market ID\");\r\n        Market storage market = markets[_marketId];\r\n        return (market.description, market.numOptions, market.resolved, market.winningOption);\r\n    }\r\n\r\n    function getOption(uint _marketId, uint _optionId) public view returns (string memory) {\r\n        require(_marketId < markets.length, \"Invalid market ID\");\r\n        Market storage market = markets[_marketId];\r\n        require(_optionId < market.numOptions, \"Invalid option index\");\r\n\r\n        return market.options[_optionId];\r\n    }\r\n}\r\n",
  "sourcePath": "C:\\Users\\anaha\\PredictChain\\contracts\\contracts\\predContract.sol",
  "compiler": {
    "name": "solc",
    "version": "0.8.21+commit.d9974bed.Emscripten.clang"
  },
  "schemaVersion": "3.4.16",
  "updatedAt": "2024-07-11T14:52:20.850Z",
  "devdoc": {
    "kind": "dev",
    "methods": {},
    "version": 1
  },
  "userdoc": {
    "kind": "user",
    "methods": {},
    "version": 1
  }
}